{
  "contractName": "Faucet",
  "abi": [
    {
      "anonymous": false,
      "inputs": [
        {
          "indexed": true,
          "internalType": "address",
          "name": "from",
          "type": "address"
        },
        {
          "indexed": false,
          "internalType": "uint256",
          "name": "amount",
          "type": "uint256"
        }
      ],
      "name": "Deposit",
      "type": "event"
    },
    {
      "anonymous": false,
      "inputs": [
        {
          "indexed": true,
          "internalType": "address",
          "name": "to",
          "type": "address"
        },
        {
          "indexed": false,
          "internalType": "uint256",
          "name": "amount",
          "type": "uint256"
        }
      ],
      "name": "Withdrawal",
      "type": "event"
    },
    {
      "payable": true,
      "stateMutability": "payable",
      "type": "fallback"
    },
    {
      "constant": false,
      "inputs": [
        {
          "internalType": "uint256",
          "name": "withdraw_amount",
          "type": "uint256"
        }
      ],
      "name": "withdraw",
      "outputs": [],
      "payable": false,
      "stateMutability": "nonpayable",
      "type": "function"
    }
  ],
  "bytecode": "0x608060405234801561001057600080fd5b50610292806100206000396000f3fe60806040526004361061001e5760003560e01c80632e1a7d4d1461006e575b3373ffffffffffffffffffffffffffffffffffffffff167fe1fffcc4923d04b559f4d29a8bfc6cda04eb5b0d3c460751c2402c5c5cc9109c346040518082815260200191505060405180910390a2005b34801561007a57600080fd5b506100a76004803603602081101561009157600080fd5b81019080803590602001909291905050506100a9565b005b80471015610102576040517f08c379a000000000000000000000000000000000000000000000000000000000815260040180806020018281038252603381526020018061022b6033913960400191505060405180910390fd5b67016345785d8a0000811115610163576040517f08c379a000000000000000000000000000000000000000000000000000000000815260040180806020018281038252602f8152602001806101fc602f913960400191505060405180910390fd5b3373ffffffffffffffffffffffffffffffffffffffff166108fc829081150290604051600060405180830381858888f193505050501580156101a9573d6000803e3d6000fd5b503373ffffffffffffffffffffffffffffffffffffffff167f7fcf532c15f0a6db0bd6d0e038bea71d30d808c7d98cb3bf7268a95bf5081b65826040518082815260200191505060405180910390a25056fe4661756365743a20416c6c6f77656420746f207769746864726177206c657373207468616e20302e312065746865724661756365743a20496e73756666696369656e742062616c616e636520666f72207769746864726177616c2072657175657374a265627a7a723158208b2110e1028f89761da30e59d5853cec12cef77b136cfe6d96aabbeb17502b4664736f6c63430005100032",
  "source": "// SPDX-License-Identifer: MIT\n\npragma solidity >0.5.0 <0.6.0;\n\ncontract Faucet {\n\n    event Withdrawal(address indexed to, uint amount);\n    event Deposit(address indexed from, uint amount);\n\n    // give out ether to anyone who asks\n    function withdraw(uint withdraw_amount) public {\n        // check for sufficient funds\n        require(address(this).balance >= withdraw_amount, \"Faucet: Insufficient balance for withdrawal request\");\n        require(withdraw_amount <= 0.1 ether, \"Faucet: Allowed to withdraw less than 0.1 ether\");\n        msg.sender.transfer(withdraw_amount);\n        emit Withdrawal(msg.sender, withdraw_amount);\n    }\n\n    function () external payable {\n        emit Deposit(msg.sender, msg.value);\n    }\n}",
  "sourcePath": "/Users/seungjaeyun/Desktop/faucet/contracts/Faucet.sol",
  "compiler": {
    "name": "solc",
    "version": "0.5.16+commit.9c3226ce.Emscripten.clang"
  },
  "schemaVersion": "3.2.0",
  "updatedAt": "2020-05-31T01:24:37.389Z",
  "networkType": "ethereum",
  "devdoc": {
    "methods": {}
  },
  "userdoc": {
    "methods": {}
  }
}